:100000000C94BD000C94EE000C94EE000C94EE00E9
:100010000C94EE000C94EE000C94EE000C94EE00A8
:100020000C94EE000C94EE000C94EE000C94EE0098
:100030000C94EE000C94EE000C94EE000C94EE0088
:100040000C94EE000C94EE000C94EE000C94EE0078
:100050000C94EE000C94EE000C94EE000C94F00066
:100060000C94EE000C94EE000C94EE000C94EE0058
:100070000C94EE000C94EE000C94EE000C94EE0048
:100080000C94EE000C94EE000C94EE000C94EE0038
:100090000C94EE000C94EE000C94EE000C94EE0028
:1000A0000C94EE000C94EE000C94EE000C94EE0018
:1000B0000C94EE000C94EE000C94EE000C94EE0008
:1000C0000C94EE000C94EE000C94EE000C94EE00F8
:1000D0000C94EE000C94EE000C94EE000C94EE00E8
:1000E0000C94EE000C94F3040C9492040C945805B8
:1000F0000C94DE040C945B050C94AB050C94840703
:100100000C94F6040C94B5050C94FF0E0C94750831
:100110000C94F0040C94140A0C94AE050C948E11FB
:100120000C9455050C9468020C9470060C94B80558
:100130000C94E7040C9493090C94D8040C94DB04FD
:100140000C946E040C94EA040C94290A0C94E104B7
:100150000C94B6070C94E4040C947F0A0C94B2053A
:100160000C94BD050C946D0B0C94A8050C94AB0677
:100170000C94ED040C940A098E1111241FBECFEFCC
:10018000D1E2DEBFCDBF00E00CBF14E0A0E0B2E0E2
:10019000E6E7FDE200E00BBF02C007900D92A43439
:1001A000B107D9F729E0A4E4B4E001C01D92AF3350
:1001B000B207E1F710E0CDEBD0E000E006C02197F8
:1001C0000109802FFE010E949314CC3BD10780E0EF
:1001D0000807A9F70E943F110C94B9160C9400006F
:1001E0001F920F920FB60F9211242F938F939F930C
:1001F000AF93BF938091480490914904A0914A0421
:10020000B0914B04905CAF4FBF4F809348049093E4
:100210004904A0934A04B0934B0480914804909100
:100220004904A0914A04B0914B0481389E43A10532
:10023000B10500F18091440490914504A0914604D9
:10024000B09147040196A11DB11D80934404909381
:100250004504A0934604B0934704809148049091CC
:100260004904A0914A04B0914B0480589E43A109CF
:10027000B109CBCFBF91AF919F918F912F910F90EB
:100280000FBE0F901F90189585B5836085BDEEE673
:10029000F0E08081816080830895F8946091440447
:1002A0007091450480914604909147047894089594
:1002B000E1ECF0E0808188618083E2ECF0E0808115
:1002C000866080831092C50080E18093C400089509
:1002D0009091C00095FD02C00000FACF8093C60047
:1002E00008958091C00087FF04C08091C60090E00F
:1002F00008958FEF9FEF089580E684B982EA809396
:1003000080008AE1809381008FE39CE990938700CD
:100310008093860008958F929F92AF92BF92CF9262
:10032000DF92EF92FF926C01990FEE08FF08C092E6
:100330002709D0922809E0922909F0922A096091B0
:1003400000027091010280910202909103020E94CA
:1003500014134B015C01C701B6010E94141329E27A
:100360003CE54DEA51E40E94A2139B01AC01C5019A
:10037000B4010E9472120E94E51260932B097093DF
:100380002C0980932D0990932E0970938900609316
:1003900088002FEF83ED90E3215080409040E1F7FB
:1003A00000C00000FF90EF90DF90CF90BF90AF9023
:1003B0009F908F9008958F929F92AF92BF92CF920D
:1003C000DF92EF92FF926C01990FEE08FF08C09246
:1003D0003309D0923409E0923509F09236096091E0
:1003E00000027091010280910202909103020E942A
:1003F00014134B015C01C701B6010E94141329E2DA
:100400003CE54DEA51E40E94A2139B01AC01C501F9
:10041000B4010E9472120E94E51260933709709332
:1004200038098093390990933A0970938B0060934F
:100430008A002FEF83ED90E3215080409040E1F758
:1004400000C00000FF90EF90DF90CF90BF90AF9082
:100450009F908F9008958F929F92AF92BF92CF926C
:10046000DF92EF92FF926C01990FEE08FF08C092A5
:100470002F09D0923009E0923109F092320960914F
:1004800000027091010280910202909103020E9489
:1004900014134B015C01C701B6010E94141329E239
:1004A0003CE54DEA51E40E94A2139B01AC01C50159
:1004B000B4010E9472120E94E5126093B300FF9093
:1004C000EF90DF90CF90BF90AF909F908F90089566
:1004D000CF93DF93EC01EAA1FBA16081718182815E
:1004E00093810E94DE12CB010E948B01EAA1FBA145
:1004F00064817581868197810E94DE12CB010E9402
:10050000DB01EAA1FBA160857185828593850E944C
:10051000DE12CB01DF91CF910C942B020895CF9284
:10052000DF92EF92FF920F931F93CF93DF938C0193
:10053000EB01688179818A819B8120E03AEC4AE96C
:100540005BE30E943314F801C080D180E280F38025
:10055000C20ED31EE41EF51EC082D182E282F38257
:10056000688379838A839B83DF91CF911F910F9159
:10057000FF90EF90DF90CF900895CF93DF93EC0141
:10058000CB01BA0120E03AEC4AE95BE30E94551442
:10059000288339834A835B836C837D838E839F8327
:1005A000BE016C5F7F4FCE010E948F02CE01DF91B2
:1005B000CF9108950F931F93CF93DF93EC01888120
:1005C0009981AA81BB810197A109B109FB01008131
:1005D000118122813381800F911FA21FB31F888355
:1005E0009983AA83BB838C819D81AE81BF81965301
:1005F000A546B44C4481558166817781840F951F4F
:10060000A61FB71F8C839D83AE83BF83BE016C5F23
:100610007F4FCE010E948F02CE01DF91CF911F91BB
:100620000F9108950F931F93CF93DF93EC0188816F
:100630009981AA81BB810197A109B109FB010081C0
:10064000118122813381801B910BA20BB30B888314
:100650009983AA83BB838C819D81AE81BF81965390
:10066000A546B44C4481558166817781841B950BE6
:10067000A60BB70B8C839D83AE83BF83BE016C5FDB
:100680007F4FCE010E948F02CE01DF91CF911F914B
:100690000F9108950F931F93CF93DF93CDB7DEB7DC
:1006A00060970FB6F894DEBF0FBECDBFFB01DC0133
:1006B0004D915D916D917C91139700811181228103
:1006C0003381401B510B620B730B49875A876B8731
:1006D0007C8714960D911D912D913C911797448123
:1006E000558166817781D901C801841B950BA60BC2
:1006F000B70B8D879E87AF87B88BBE01635F7F4F37
:10070000CE0109960E94A00388E0FE013996DE0121
:10071000119601900D928A95E1F729813A814B81DA
:100720005C816D817E818F81988560960FB6F8948B
:10073000DEBF0FBECDBFDF91CF911F910F91089506
:100740000F931F93FB014081518162817381DC0112
:100750000D911D912D913C914130BAEC5B07BAE9A6
:100760006B07BBE37B0744F05A5C6A497B430F5F2E
:100770001F4F2F4F3F4FF0CF77FF08C056536546AE
:10078000744C0150110921093109F6CFDC010D9398
:100790001D932D933C9313974083518362837383FE
:1007A0001F910F9108950F931F93CF93DF93EC0147
:1007B000088119812A813B81FB0180819181A2817D
:1007C000B381800F911FA21FB31F88839983AA83CF
:1007D000BB830C811D812E813F8184819581A681FF
:1007E000B781800F911FA21FB31F8C839D83AE839F
:1007F000BF83BE016C5F7F4FCE010E94A003CE017C
:10080000DF91CF911F910F9108950F931F93CF9375
:10081000DF93EC0188819981AA81BB81FB01008172
:10082000118122813381801B910BA20BB30B888332
:100830009983AA83BB838C819D81AE81BF814481D2
:10084000558166817781841B950BA60BB70B8C8332
:100850009D83AE83BF83BE016C5F7F4FCE010E943C
:10086000A003CE01DF91CF911F910F910895CF92F8
:10087000DF92EF92FF92CF93DF93EC016A017B014D
:10088000688179818A819B810E941613A701960154
:100890000E94A2130E94DE12688379838A839B835D
:1008A0006C817D818E819F810E941613A701960124
:1008B0000E94A2130E94DE126C837D838E839F832D
:1008C000BE016C5F7F4FCE010E94A003CE01DF917D
:1008D000CF91FF90EF90DF90CF900895DC01FB0166
:1008E00012968C911297808313968C911397818323
:1008F00014968C911497828315968C911597838307
:1009000016968C911697848317968C9117978583EA
:1009100018968C911897868319968C91878388E016
:1009200090E00895FC01DB014C9150E060E070E044
:10093000428353836483758311968C911197582B4E
:10094000428353836483758312968C911297682B2C
:10095000428353836483758313968C911397782B0A
:10096000428353836483758314964C91149750E0AB
:1009700060E070E0468357836087718715968C919D
:100980001597582B468357836087718716968C91ED
:100990001697682B468357836087718717968C91CB
:1009A000782B468357836087718788E090E00895AD
:1009B00088E292E0089586E392E0089587E592E068
:1009C000089580E792E0089581E992E0089584EA2D
:1009D00092E008958CE092E0089585EC92E008950D
:1009E00086EE92E0089583E093E008958F929F92BF
:1009F000AF92BF92CF92DF92EF92FF920F931F932D
:100A0000CF93DF93EC018B018A81FB0180838B8183
:100A100081838C8182838D818383C12CD12C812C15
:100A2000912C540184E0E82EF12C4A815B816C8189
:100A30007D81D801AE0DBF1D84169506A606B706AA
:100A4000C0F48A899B898C0D9D1DFC012081318118
:100A5000F90120813181BD01F9011995E80EF91ED6
:100A6000FFEF8F1A9F0AAF0ABF0A8CE0C80ED11C95
:100A7000DCCF8C898C938D8911968C9311978E89FC
:100A800012968C9312978F8913968C93C7010496B4
:100A9000DF91CF911F910F91FF90EF90DF90CF905A
:100AA000BF90AF909F908F90089584E293E0089557
:100AB0008EE393E00895CF92DF92FF920F931F93FE
:100AC000CF93DF93EC018B0102960E94F60468013C
:100AD000C80ED91E2A8DF60120832B8D21832C8DE3
:100AE00022832D8D23830496D60140E050E0BA0185
:100AF0000A8D1B8D2C8D3D8D4017510762077307A2
:100B0000F8F49D012C193D090AA11BA1200F311FEA
:100B1000F901F0800181128123811496FC921497CF
:100B200015960C93159716961C93169717962C935B
:100B3000179704964F5F5F4F6F4F7F4F1496D8CF34
:100B4000DF91CF911F910F91FF90DF90CF9008958B
:100B50008FE593E008958AE793E00895FC0184A56A
:100B600095A508958FE593E008958AE793E00895A9
:100B70008F579B4FFC0180810895CF92DF92EF92B7
:100B8000FF920F931F93CF93DF9300D01F921F927A
:100B9000CDB7DEB7643671053CF0FC01EF57FB4F73
:100BA0002081222309F46DC0DA017B018C01BC0194
:100BB000665E7D4FED91FC910190F081E02DCA01C0
:100BC000199568012DEEC21A2DEFD20A2FEFD6012A
:100BD0002C93F801EC5EFD4F2EEF2083319680833D
:100BE000319690833196292F280F209520833196B6
:100BF000E0821696FC9245E050E020E030E0DC0117
:100C00001696A417B50734F06191260F311D4F5F7A
:100C10005F4FF7CF7C01B8E0EB0EF11C800F911F06
:100C2000FC01E65EFD4F20952083E1E0EE16E2E058
:100C3000FE066CF48601C8018C199D098E159F056E
:100C40001CF5D8018D918D010E946801F4CF85EFCC
:100C500093E09A83898383E08B838BE993E09D8380
:100C60008C83D801ED91FC910190F081E02DAE01D3
:100C70004F5F5F4F67E070E0C80119958FEF9FEFFE
:100C800004C080E090E001C0C7010F900F900F906A
:100C90000F900F90DF91CF911F910F91FF90EF90E8
:100CA000DF90CF900895CF92DF92EF92FF9220E0F5
:100CB00030E06A017B01022E04C0F694E794D794D9
:100CC000C7940A94D2F7FC01C192CF01285F3F4F2D
:100CD0002032310571F7FF90EF90DF90CF900895AB
:100CE000EF92FF920F931F93CF93DF93EC018B0151
:100CF000AA81BB81FD0101900020E9F731977F01B6
:100D0000EA1AFB0AA70160E070E0C8010E945306DE
:100D10006A817B81A701C80104960E948F15F801A2
:100D2000EE0DFF1D8C8184838D8185838E8186836A
:100D30008F81878388858087898581878A85828757
:100D40008B858387C7010C96DF91CF911F910F91FF
:100D5000FF90EF9008954F925F926F927F92AF92C3
:100D6000BF92CF92DF92EF92FF920F931F93CF9398
:100D7000DF93EC018B018A81FB0180838B8181836E
:100D80008C8182838D818383DB0140E050E0BA0156
:100D9000E4E0F0E01496CA80DB80EC80FD80CF01B7
:100DA00004964C155D056E057F05C8F42A853B85C4
:100DB000E20FF31F3497D080F18032812381DC92DF
:100DC0001196FC92119712963C93129713962C93BE
:100DD0001397FC014F5F5F4F6F4F7F4FDBCF5F017A
:100DE000A00EB11E2C85F50120832D8521832E8533
:100DF00022832F852383D50140E050E0BA01CC84C3
:100E0000DD84EE84FF849C012C5F3F4F4C155D0513
:100E10006E057F05F8F4CD018A199B09EC88FD88E1
:100E20008E0D9F1DFC01D080E180F280838114969D
:100E3000DC9214971596EC9215971696FC921697DD
:100E400017968C931797C9014F5F5F4F6F4F7F4F76
:100E50001496D5CFF801E80FF91F8E8980838F890A
:100E60008183888D8283898D83837901A12CB12C24
:100E7000412C512C32018E899F89A88DB98D48163D
:100E800059066A067B0680F5EC8DFD8DEA0DFB1D8B
:100E9000A081B181FD0101900020E9F731976F0138
:100EA000CA1ADB0AA60160E070E0C8018E0D9F1D22
:100EB0000E945306F4E0EF0EF11CEC8DFD8DEA0D5F
:100EC000FB1D60817181A601C8018E0D9F1D0E94CE
:100ED0008F15EC0CFD1C8FEF481A580A680A780A27
:100EE000E2E0AE0EB11CC7CFC701DF91CF911F91D9
:100EF0000F91FF90EF90DF90CF90BF90AF907F90D9
:100F00006F905F904F900895EF92FF920F931F9311
:100F1000CF93DF938C017B01DC0112962C91129709
:100F2000FB012193CF011396ED91FC911497EF01F2
:100F300009900020E9F72197CE1BDF0BAE0160E09E
:100F400070E00E945306D80113966D917C9114971E
:100F5000AE01C70105960E948F15CE010596DF915F
:100F6000CF911F910F91FF90EF900895CF92DF9254
:100F7000EF92FF920F931F93CF93DF937C018B012E
:100F8000DC0112968C911297FB01808313968C9151
:100F9000139781831496ED91FC911597EF010990B9
:100FA0000020E9F72197CE1BDF0BAE0160E070E077
:100FB000C80102960E945306D70114966D917C9148
:100FC0001597AE01C80106960E948F15CE010696B0
:100FD000F701A681B781FD0101900020E9F7319763
:100FE0006F01CA1ADB0AA60160E070E0800F911F52
:100FF0000E9453062A96D70116966D917C911797F9
:10100000A601C8018C0F9D1F0E948F15CC0DDD1D00
:10101000D7011896ED91FC911997DF010D900020F2
:10102000E9F711976D01CE1ADF0AA60160E070E0C2
:10103000C8018C0F9D1F0E9453062496F7016085FE
:101040007185A601C8018C0F9D1F0E948F15C601D6
:101050008C0F9D1FD7011A966C911A971B964C9175
:101060001B971C963C911C971D962C91F801E80F3C
:10107000F91F60834183328323830496DF91CF91EC
:101080001F910F91FF90EF90DF90CF900895CF9236
:10109000DF92EF92FF92FC01108211821282138282
:1010A000DB0120E030E04D9150E0022E02C0440F01
:1010B000551F0A94E2F7052E000C660B770BC080D3
:1010C000D180E280F3804C295D296E297F294083FD
:1010D000518362837383285F3F4F2032310519F7B4
:1010E000FF90EF90DF90CF9008954F925F926F92B4
:1010F0007F928F929F92AF92BF92EF92FF920F9347
:101100001F93CF93DF9300D01F92CDB7DEB78C0132
:101110007B01CE0101960E94470889819A81AB81AB
:10112000BC814C015D0124E0820E911CA11CB11C0C
:10113000A7014D5F5F4FFA0124E030E02901612CE7
:10114000712C481459046A047B0428F4618161936A
:101150002F5F3F4FF3CFE80EF91EF7011382F8011E
:1011600053834283F701448150E060E070E0F8016E
:101170004483558366837783F7012581522BF801D9
:101180004483558366837783F7012681622BF801B8
:101190004483558366837783F7012781722BF80197
:1011A0004483558366837783F701408550E060E090
:1011B00070E0F8014087518762877387F7012185C6
:1011C000522BF8014087518762877387F701228588
:1011D000622BF8014087518762877387F701238567
:1011E000722BF80140875187628773870C960F90A6
:1011F0000F900F900F90DF91CF911F910F91FF9063
:10120000EF90BF90AF909F908F907F906F905F9086
:101210004F9008954F925F926F927F92AF92BF92DC
:10122000CF92DF92EF92FF920F931F93CF93DF93B2
:10123000EC015B01FB01C080D180E280F3808A81F8
:101240009B81AC81BD818C159D05AE05BF0560F409
:101250008CE08C9DB0018D9D700D11248A899B8935
:101260000E94AA149B8B8A8BCA82DB82EC82FD824D
:10127000E12CF12C412C512C320104E010E06E01E4
:10128000F6E0CF0ED11C8A819B81AC81BD81F50136
:10129000E00FF11F481659066A067B06C8F4BF0125
:1012A000C6010E947508080F191FAA89BB89AE0DD7
:1012B000BF1D8CE0F60101900D928A95E1F78FEF4A
:1012C000481A580A680A780AECE0EE0EF11CDBCFE7
:1012D000808190E0A0E0B0E08C8B9D8BAE8BBF8BCB
:1012E0002181922B8C8B9D8BAE8BBF8B2281A22B6D
:1012F0008C8B9D8BAE8BBF8B2381B22B8C8B9D8B6C
:10130000AE8BBF8BC8010496DF91CF911F910F91D7
:10131000FF90EF90DF90CF90BF90AF907F906F9055
:101320005F904F900895AF92BF92CF92DF92EF926D
:10133000FF920F931F93CF93DF93EC018B010296E3
:101340000E940A09080F191FF80120813181C2800B
:10135000D12CE12CF12C7601DD24CC24D32AC22A15
:101360002381F22A5C01F4E0AF0EB11C8A8D9B8DC3
:10137000AC8DBD8D8C159D05AE05BF0558F4B6012D
:10138000660F771F660F771F8AA19BA10E94AA1480
:101390009BA38AA3CA8EDB8EEC8EFD8E9801C12C96
:1013A000D12C7601AE01425E5F4F8A8D9B8DAC8D54
:1013B000BD8DC816D906EA06FB0650F5F901658110
:1013C000868190E0A0E0B0E0DC0199278827962B89
:1013D0006481862B6781B62B8E8F9F8FA8A3B9A3BC
:1013E000F4E0AF0EB11CC901801B910BAAA1BBA1F7
:1013F000A80FB91F84E0FA0101900D928A95E1F7D8
:101400008FEFC81AD80AE80AF80A2C5F3F4FCDCFF1
:10141000C501DF91CF911F910F91FF90EF90DF9069
:10142000CF90BF90AF9008950F931F93CF93DF930A
:101430008C01EC012696CE010E949309D8019A9660
:10144000ED91FC919B97CE01DF91CF911F910F9170
:1014500019944F925F926F927F928F929F92AF9268
:10146000BF92EF92FF920F931F93CF93DF9300D021
:101470001F92CDB7DEB77C018B01FB018191BF01CB
:10148000F7018283CE0101960E94470889819A81E3
:10149000AB81BC814C015D01F5E08F0E911CA11C5C
:1014A000B11CA8014C5F5F4FFA0125E030E0290133
:1014B000612C712C481459046A047B0428F461815E
:1014C00061932F5F3F4FF3CFF801E80FF91F1482AC
:1014D000F7015483438305960F900F900F900F9060
:1014E000DF91CF911F910F91FF90EF90BF90AF9040
:1014F0009F908F907F906F905F904F9008954F9244
:101500005F926F927F928F929F92AF92BF92CF9293
:10151000DF92EF92FF920F931F93CF93DF93CDB79C
:10152000DEB72C970FB6F894DEBF0FBECDBF7C019F
:101530008B01DB018C9190E0F701938382831196FC
:101540002C91922B938382836E5F7F4FCE010996FD
:101550000E94470889849A84AB84BC8424013501A5
:10156000F6E04F0E511C611C711C98012B5F3F4F20
:10157000F90186E090E0AC0160E070E044155505AB
:101580006605770520F4418141930196F4CFF80177
:10159000E80DF91D1582D70115963C932E931497EB
:1015A000B4016A5F7F4F600F711FCE0105960E94E4
:1015B0004708BAE08B0E911C4D805E806F80788466
:1015C000A401092C000C660B770B440D551D661DFC
:1015D000771DD801A80DB91DCD01801B910B5C01B1
:1015E000C12CD12CA416B506C606D70628F48D91B9
:1015F000FD0132978083F0CF5401A40CB51CB801D3
:101600006A0D7B1DFB0131971082C4010197800F89
:10161000911FF70197838683CE0101960E944708A8
:1016200095012C5F3F4F89819A81AB81BC81290153
:10163000032E000C66087708480E591E6A1E7B1E92
:10164000F5013396E00FF11FA9014A01A12CB12C3D
:1016500084149504A604B70428F4618161934F5F54
:101660005F4FF3CF820F931FF801E80FF91FDF01DF
:1016700011971C9221503109020F131FD70119969F
:101680001C930E9318972181428150E060E070E036
:10169000BA0155274427522B2081422B2381722BDC
:1016A000F701428753876487758704962C960FB697
:1016B000F894DEBF0FBECDBFDF91CF911F910F9188
:1016C000FF90EF90DF90CF90BF90AF909F908F9062
:1016D0007F906F905F904F9008952F923F924F921E
:1016E0005F926F927F928F929F92AF92BF92CF92B2
:1016F000DF92EF92FF920F931F93CF93DF93CDB7BB
:10170000DEB760970FB6F894DEBF0FBECDBF8C0179
:101710006B01DB018D909D90AD90BC90FC018281AE
:101720009381A481B58188159905AA05BB0570F43C
:10173000B401660F771F660F771F828593850E941D
:10174000AA14D8011B969C938E931A97F801828253
:101750009382A482B5829601812C912C540144E09D
:1017600050E0B8016A5F7F4F2C5F3F4FF8018281E4
:101770009381A481B581FA0134961F0188169906D8
:10178000AA06BB0650F5D9011196FC901197129646
:101790008C9190E0A0E0B0E0DC01992788279F2998
:1017A000F901F0808F29F380BF29F80186839783A0
:1017B000A087B187DA01A101149782859385A80FCC
:1017C000B91F84E0FB0101900D928A95E1F7FFEFCC
:1017D0008F1A9F0AAF0ABF0AC7CF4601840E951E13
:1017E000D4018C9111969C91119712964C9012975E
:1017F000512C612C712C320155244424592A482A39
:1018000013968C91782A5F01F80184859585A685C9
:10181000B78584159505A605B70570F4B201660F66
:10182000771F660F771F848995890E94AA14D801B3
:1018300055969C938E935497F801448655866686F8
:101840007786C401412C512C32019801205F3F4F13
:10185000D8011C964D915D916D917C911F97F5017A
:101860003496441655066606770698F5DC011596FB
:10187000FC90159716964C91169750E060E070E03A
:10188000BA01552744275F291496FC9014974F29D5
:101890001796FC907F29D80150964D935D936D93D8
:1018A0007C9353975F01AC014819590954960D90E8
:1018B000BC91A02DA40FB51F44E0F90101900D9239
:1018C0004A95E1F7BFEF4B1A5B0A6B0A7B0A049655
:1018D000BFCFD601AA0DBB1D8C9111969C9111977B
:1018E00012968C901297912CA12CB12C5401992412
:1018F0008824992A882A13968C91B82A7F01F801A6
:1019000086899789A08DB18D88159905AA05BB0593
:1019100060F4B401660F771F848D958D0E94AA1420
:10192000D8015D969C938E935C97F801868A978A7E
:10193000A08EB18E212C312C812C912C5401980138
:10194000265E3F4F3A872987F80186899789A08DBF
:10195000B18D88169906AA06BB0608F05FC0B601CD
:101960006E0D7F1DCE0101960E94470897012C5FE6
:101970003F4F388B2F8749815A816B817C81C90108
:10198000330FAA0BBB0B2C013D01440E551E661EE6
:10199000771E4B865C866D867E8623E0E20EF11C08
:1019A000F601EE0DFF1D2F853889C901A0E0B0E0DA
:1019B0004B845C846D847E8484159505A605B705EB
:1019C00028F4A181A1932F5F3F4FEFCF6F847888D8
:1019D000460D571DF601E40FF51F31971082C30124
:1019E00001978C0D9D1DD8015B969C938E935A9701
:1019F0007A015C96ED91FC915D97E20DF31DA9854E
:101A0000BA858D919C9191838083BFEF8B1A9B0A3D
:101A1000AB0ABB0AE2E02E0E311C96CFC7016096DE
:101A20000FB6F894DEBF0FBECDBFDF91CF911F91EF
:101A30000F91FF90EF90DF90CF90BF90AF909F906D
:101A40008F907F906F905F904F903F902F90089570
:101A50000F931F93CF93DF93CDB7DEB72A970FB6BF
:101A6000F894DEBF0FBECDBF8C018DED93E09A835D
:101A700089831B821C821D821E821F821886198602
:101A80001A86D801ED91FC910190F081E02DAE0114
:101A90004F5F5F4F6AE070E0C80119950E944D01E9
:101AA000F80163837483858396832A960FB6F8942E
:101AB000DEBF0FBECDBFDF91CF911F910F91089573
:101AC0004F925F926F927F92AF92BF92CF92DF92CE
:101AD000EF92FF920F931F93CF93DF93CDB7DEB7B3
:101AE0002E970FB6F894DEBF0FBECDBF8C0189EEE6
:101AF00093E09A8389831C821B8283ED93E09E830B
:101B00008D8398878F839A8789871B861C861D867D
:101B10001E8668018DEEC81A8BEFD80A7801ABEBF0
:101B2000EA1AABEFFA0A412C92E0592E612C712C83
:101B3000D601ED91FC913097A9F1848195819C8328
:101B40008B83808191819E838D8382819381DC014F
:101B5000ED91FC910480F581E02D199598878F8394
:101B6000D601ED91FC9182819381DC01ED91FC9194
:101B70000680F781E02D19959A8789874B865C86C8
:101B80006D867E86D601ED91FC9160857185D801C8
:101B9000ED91FC910190F081E02DAE014F5F5F4F20
:101BA000C8011995B2E0CB0ED11CCE14DF0409F0A8
:101BB000BFCF6801E9E8CE1AEBEFDE0A412C82E0E4
:101BC000582E612C712CF701A081B1811097E1F1A1
:101BD00012968D919C9113979C838B8314968D9173
:101BE0009C9115979E838D83ED91FC9111970480B4
:101BF000F581E02DCD01199598878F83D7018D91BF
:101C00009C91DC01ED91FC910680F781E02D199506
:101C10009A8789874B865C866D867E86D801ED9192
:101C2000FC91A080B180F70180819181DC01ED9170
:101C3000FC910280F381E02D1995AE014F5F5F4F5B
:101C4000BC01C801F5011995F2E0EF0EF11CCE14AC
:101C5000DF0409F0B8CFF801EF57FB4F81E0808334
:101C60002E960FB6F894DEBF0FBECDBFDF91CF9199
:101C70001F910F91FF90EF90DF90CF90BF90AF90AA
:101C80007F906F905F904F9008958F929F92AF9248
:101C9000BF92CF92DF92EF92FF920F931F93CF9359
:101CA000DF93CDB7DEB72A970FB6F894DEBF0FBE2D
:101CB000CDBF8C015B018DED93E09A8389831B82FC
:101CC0001C821D821E821F82188619861A860E9417
:101CD0004D01F801C380D480E580F6809B01AC0102
:101CE0002C193D094E095F0969017A01B501CE0140
:101CF00001960E94920488EE882E83E0982EA12CF3
:101D0000B12CC701B601A50194010E943314CB8008
:101D1000DC80ED80FE80C20ED31EE41EF51ECB8259
:101D2000DC82ED82FE829B01AC0160E472E48FE014
:101D300090E00E940F14CF80D884E984FA84DC01FB
:101D4000CB018C0D9D1DAE1DBF1D8F839887A9876C
:101D5000BA870E944D01CB80DC80ED80FE8031E0AF
:101D6000C31AD108E108F108A50194010E943314B7
:101D7000C21AD30AE40AF50AF801C782D086E186BE
:101D8000F286CF80D884E984FA84F6E3DF1AF5E698
:101D9000EF0AF4ECFF0A9B01AC0160E472E48FE00F
:101DA00090E00E940F14C61AD70AE80AF90AF8014F
:101DB000C386D486E586F686B801655F7F4FC80185
:101DC00007960E948F020E944D01F801EA57FB4FCF
:101DD00060837183828393832A960FB6F894DEBF63
:101DE0000FBECDBFDF91CF911F910F91FF90EF906C
:101DF000DF90CF90BF90AF909F908F9008952F92DB
:101E00003F924F925F926F927F928F929F92AF928A
:101E1000BF92CF92DF92EF92FF920F931F93CF93D7
:101E2000DF93CDB7DEB762970FB6F894DEBF0FBE73
:101E3000CDBF9A8B898B0E944D014B015C01298992
:101E40003A892A573B4F3C832B83F901808191814A
:101E5000A281B381A5019401281B390B4A0B5B0BAE
:101E6000DA01C901893F9A42A105B10528F0E98943
:101E7000FA89EF57FB4F108209891A8909581B4FBD
:101E8000D8018D919C91892B81F0E989FA89E657D7
:101E9000FB4F80819181A281B38188159905AA05A4
:101EA000BB0518F4F801118210821A821982698820
:101EB0007A88F1E86F1AFBEF7F0AC988DA8825E88B
:101EC000C21A2BEFD20A49885A8833E1430E511CBB
:101ED00049895A894F575B4F5E834D8389899A8917
:101EE00081579B4F98878F83A989BA89A257BB4F87
:101EF000BA87A987E988FA88B7E8EB1ABBEFFB0A2B
:101F000029883A88E3E82E1AEBEF3E0A29893A89B4
:101F100026573B4F3C872B87D501C4014496A11D12
:101F2000B11D8D879E87AF87B88BE989FA89878530
:101F30009089A189B289892B8A2B8B2B31F40E943D
:101F400071019C0197FF15C049C10E944D01DC0140
:101F5000CB0188199909AA09BB09E989FA8927855A
:101F6000308941895289281739074A075B0738F7B2
:101F700065C1D3018D919C911197820F931F8D9311
:101F80009C93F8014081518147305105E9F4D1011A
:101F90008D919C911197AC014F5F5F4F4D935C9376
:101FA000E989FA89E80FF91F238BF7018081918174
:101FB000019791838083892B09F0B7CFE8E0F0E0A7
:101FC000D801ED93FC93B1CF4115510541F52F3F59
:101FD000310581F481E090E0918380832D853E85F9
:101FE0004F855889AB85BC852D933D934D935C936C
:101FF00013979BCF0E944D01DC01CB0188199909F1
:10200000AA09BB0989389341A105B10508F48DCF10
:1020100029893A892F573B4FD9011C920FC1413072
:10202000510591F42E3F310519F482E090E02BC068
:1020300011821082ED81FE818081811176CF8989A4
:102040009A890E94280D71CF4230510569F4D70159
:102050002D933C93F1011182108283E090E0D8012E
:102060008D939C93F3014FC04330510581F4322F7F
:102070002227D7018D919C911197280F391F2D93FD
:102080003C9384E090E0F801918380834ECF44300C
:10209000510581F460E071E00E941F148F3F9105AB
:1020A00029F485E090E0918380833FCFF80111828D
:1020B00010823BCF4530510561F4D6012D933C93FE
:1020C00086E090E0F80191838083D3012D933C93C7
:1020D0002CCF46305105D1F4322F2227F6018081D2
:1020E0009181280F391F31832083E7E0F0E0D80188
:1020F000ED93FC93D7018D919C91892B09F015CF1D
:1021000028E030E0F801318320830FCF48305105BB
:1021100009F00BCF1182108260E071E00E941F1461
:102120008F3F910509F001CFF601808191810097E1
:10213000D9F489899A890E94280D89899A890E94EF
:10214000600D29893A892E573B4FD9018D929D9276
:10215000AD92BC921397EB81FC8180829182A28226
:10216000B3828FEF9FEF72C08A30910541F4B201C4
:1021700089899A890E94450EF1E0FA83D6CE86308D
:10218000910551F4B2018F8198850E946D0B81E019
:10219000A985BA858C93C9CE8B30910531F4ED8138
:1021A000FE811082F1E0F983C0CEFC01E456F10912
:1021B000EE0FFF1F29893A89E20FF31FEB5BFB4FFC
:1021C00080819181009709F4B0CEDC01ED91FC9102
:1021D0000190F081E02DB2011995A7CEE989FA8925
:1021E000EF57FB4F8081882301F109891A890E5727
:1021F0001B4FF80180819181A281B381A5019401D7
:10220000281B390B4A0B5B0BDA01C901853C99404D
:10221000A105B10550F089899A890E94280DD8013D
:102220008D929D92AD92BC921397BA81B11109C063
:10223000E981E11109C080E090E008C08EEF9FEFD6
:1022400005C08CEF9FEF02C08DEF9FEF62960FB637
:10225000F894DEBF0FBECDBFDF91CF911F910F91DC
:10226000FF90EF90DF90CF90BF90AF909F908F90B6
:102270007F906F905F904F903F902F9008950E94B5
:102280007C0180E090E00E948B0180E090E00E9461
:10229000DB0180E090E00E942B020FB6F894A89535
:1022A00080916000886180936000109260000FBE92
:1022B0000E9444010E94580178941092F2081092F2
:1022C000F1081092F4081092F3081092F808109296
:1022D000F7081092F6081092F508EFEBF8E080E0AE
:1022E00090E021913191232B81F4FC01EE0FFF1F2F
:1022F000E154F74F2CE434E0318320838C599F4F15
:1023000090934F0480934E0404C001968931910547
:1023100041F78AE794E00E94FF0EFBCFEAE7F4E082
:1023200081E394E091838083138214821582168264
:1023300017821086118612861386148615861686D5
:102340001786108A118A128A80E092E0EDE8F4E0A4
:10235000DF019C011D9221503040E1F7EDE8F6E0ED
:10236000DF019C011D9221503040E1F782E3EDE84E
:10237000F8E0DF01282F1D922A95E9F7EFEBF8E04E
:10238000DF011D928A95E9F71092F2081092F10888
:102390001092F4081092F3081092F6081092F508C3
:1023A0001092F8081092F7081092FA081092F908A3
:1023B0001092FB081092FC081092FD081092FE0883
:1023C0001092FF0810920009109201091092020960
:1023D000109203091092040910920509109206093F
:1023E000109207091092080981E094E090930A097D
:1023F0008093090910920B0910920C0910920D0993
:1024000010920E0910920F091092100910921109E2
:1024100010921209109214091092130910921509C2
:1024200010921609109217091092180910921909A2
:1024300010921A0910921B0910921C0910921E0981
:1024400010921D0910921F09109220091092210963
:102450001092220910922409109223091092260941
:1024600010922509ECE4F4E08BE394E091838083FF
:1024700085E294E09783868389E194E09187808761
:1024800012861386148615868DE094E097878687DA
:1024900083ED93E0918B808B128A138A148A158ABC
:1024A000168A178A108E118E138E128E148E158E28
:1024B000168E178E10A211A212A213A214A215A298
:1024C00016A217A211A610A688E692E093A782A7EB
:1024D00081E090E095A784A784ED93E095838483C1
:1024E00008955058BB27AA270E9489120C9468139C
:1024F0000E945A1338F00E94611320F039F49F3F74
:1025000019F426F40C9457130EF4E095E7FB0C94A1
:102510005113E92F0E94791358F3BA176207730712
:102520008407950720F079F4A6F50C949B130EF41C
:10253000E0950B2EBA2FA02D0B01B90190010C01D3
:10254000CA01A0011124FF27591B99F0593F50F4EB
:10255000503E68F11A16F040A22F232F342F442743
:10256000585FF3CF469537952795A795F04053953B
:10257000C9F77EF41F16BA0B620B730B840BBAF00B
:102580009150A1F0FF0FBB1F661F771F881FC2F776
:102590000EC0BA0F621F731F841F48F4879577958A
:1025A0006795B795F7959E3F08F0B0CF9395880F44
:1025B00008F09927EE0F9795879508950E94E512E8
:1025C0006894B1110C949C1308950E94811388F0B3
:1025D0009F5798F0B92F9927B751B0F0E1F0660FE7
:1025E000771F881F991F1AF0BA95C9F714C0B13028
:1025F00091F00E949B13B1E008950C949B13672FF8
:10260000782F8827B85F39F0B93FCCF38695779556
:102610006795B395D9F73EF490958095709561953F
:102620007F4F8F4F9F4F0895E89409C097FB3EF46A
:1026300090958095709561957F4F8F4F9F4F99230F
:10264000A9F0F92F96E9BB279395F695879577958D
:102650006795B795F111F8CFFAF4BB0F11F460FF4D
:102660001BC06F5F7F4F8F4F9F4F16C0882311F0A5
:1026700096E911C0772321F09EE8872F762F05C0B9
:10268000662371F096E8862F70E060E02AF09A9554
:10269000660F771F881FDAF7880F9695879597F949
:1026A000089597F99F6780E870E060E008959FEFD4
:1026B00080EC089500240A941616170618060906D9
:1026C000089500240A9412161306140605060895A8
:1026D000092E0394000C11F4882352F0BB0F40F430
:1026E000BF2B11F460FF04C06F5F7F4F8F4F9F4F70
:1026F000089557FD9058440F551F59F05F3F71F0F2
:102700004795880F97FB991F61F09F3F79F0879558
:102710000895121613061406551FF2CF4695F1DFE1
:1027200008C0161617061806991FF1CF8695710571
:10273000610508940895E894BB2766277727CB01A5
:1027400097F908950E94B5130C9468130E945A13C8
:1027500038F00E94611320F0952311F00C9451136E
:102760000C94571311240C949C130E94791370F34A
:10277000959FC1F3950F50E0551F629FF001729F26
:10278000BB27F00DB11D639FAA27F00DB11DAA1F35
:10279000649F6627B00DA11D661F829F2227B00D82
:1027A000A11D621F739FB00DA11D621F839FA00D0D
:1027B000611D221F749F3327A00D611D231F849F5D
:1027C000600D211D822F762F6A2F11249F575040B4
:1027D0009AF0F1F088234AF0EE0FFF1FBB1F661F2F
:1027E000771F881F91505040A9F79E3F510580F0F8
:1027F0000C9451130C949C135F3FE4F3983ED4F374
:10280000869577956795B795F795E7959F5FC1F79B
:10281000FE2B880F911D9695879597F90895DB01FA
:102820008F939F930E947414BF91AF91A29F800DCC
:10283000911DA39F900DB29F900D1124089597FBB9
:10284000072E16F4009407D077FD09D00E947F145C
:1028500007FC05D03EF4909581959F4F08957095A3
:1028600061957F4F0895A1E21A2EAA1BBB1BFD01A3
:102870000DC0AA1FBB1FEE1FFF1FA217B307E4075F
:10288000F50720F0A21BB30BE40BF50B661F771FB7
:10289000881F991F1A9469F7609570958095909597
:1028A0009B01AC01BD01CF010895052E97FB1EF4DD
:1028B00000940E946C1457FD07D00E94331407FC4B
:1028C00003D04EF40C946C1450954095309521959E
:1028D0003F4F4F4F5F4F089590958095709561954C
:1028E0007F4F8F4F9F4F08950E949B14A59F900D7F
:1028F000B49F900DA49F800D911D11240895AA1BD3
:10290000BB1B51E107C0AA1FBB1FA617B70710F0DA
:10291000A61BB70B881F991F5A95A9F7809590950C
:10292000BC01CD010895EE0FFF1F881F8BBF0790DC
:10293000F691E02D1994A29FB001B39FC001A39F0F
:10294000700D811D1124911DB29F700D811D1124E8
:10295000911D08956F927F928F929F92AF92BF9236
:10296000CF92DF92EF92FF920F931F93CF93DF935B
:10297000009789F4CB01DF91CF911F910F91FF90C8
:10298000EF90DF90CF90BF90AF909F908F907F900F
:102990006F900C949815FC01E60FF71F9C012250D4
:1029A0003109E217F30708F4A9C0EC01D9010D9130
:1029B0001C91119706171707B0F00530110508F4A0
:1029C0009BC0C80104978617970708F495C002506A
:1029D0001109061B170B019311936D937C93CF0183
:1029E0000E94301689C05B01A01AB10A4C01800E0A
:1029F000911EA0913D09B0913E09612C712CE12CF2
:102A0000F12C109709F446C08D919C911197A8154F
:102A1000B905B1F56C0142E0C40ED11CCA14DB0447
:102A200078F14C018A189B08640142E0C40ED11C65
:102A30001296BC9012971396AC91B5E0CB16D104C8
:102A400040F0B282A38391828082D9016D937C93FE
:102A500009C00E5F1F4F800F911FF9019183808382
:102A6000EB2DFA2FE114F10431F0D7011396FC930A
:102A7000EE93129741C0F0933E09E0933D093CC0AC
:102A80006816790608F43C017D0112960D90BC9100
:102A9000A02DB7CF80913B0990913C0988169906EB
:102AA000E1F466167706C8F4809106029091070259
:102AB000009741F48DB79EB740910A0250910B02E6
:102AC000841B950BE817F907C8F4F0933C09E093D1
:102AD0003B09F901718360830FC0CB010E949815F7
:102AE0007C01009759F0A801BE010E948F15CE010C
:102AF0000E943016C70104C0CE0102C080E090E001
:102B0000DF91CF911F910F91FF90EF90DF90CF90C9
:102B1000BF90AF909F908F907F906F900895FB0132
:102B2000DC0102C001900D9241505040D8F7089549
:102B30000F931F93CF93DF938230910510F482E0BF
:102B400090E0E0913D09F0913E0920E030E0A0E006
:102B5000B0E0309719F1408151810281138148170B
:102B60005907C8F08417950769F4109731F0129649
:102B70000C93129713961C9327C000933D09109352
:102B80003E0922C02115310519F04217530718F4E8
:102B90009A01BD01EF01DF01F801DBCF21153105FD
:102BA000F9F0281B390B2430310580F48A819B8190
:102BB0006115710521F0FB019383828304C090931A
:102BC0003E0980933D09FE01329644C0FE01E20FAA
:102BD000F31F8193919322503109398328833AC09E
:102BE00020913B0930913C09232B41F420910802AC
:102BF0003091090230933C0920933B092091060251
:102C0000309107022115310541F42DB73EB74091AF
:102C10000A0250910B02241B350BE0913B09F09105
:102C20003C09E217F307A0F42E1B3F0B28173907C6
:102C300078F0AC014E5F5F4F2417350748F04E0F18
:102C40005F1F50933C0940933B098193919302C0CD
:102C5000E0E0F0E0CF01DF91CF911F910F91089557
:102C6000CF93DF93009709F481C0FC013297138260
:102C70001282A0913D09B0913E09109781F4208104
:102C80003181820F931F20913B0930913C09281715
:102C9000390751F5F0933C09E0933B0967C0ED011A
:102CA00020E030E0CE17DF0740F44A815B819E01CF
:102CB00041155105F1F0EA01F5CFD383C28340817C
:102CC0005181840F951FC817D90759F488819981BC
:102CD000840F951F0296918380838A819B819383C1
:102CE00082832115310529F4F0933E09E0933D09D3
:102CF0003DC0E901FB83EA8349915991C40FD51F77
:102D0000EC17FD0761F480819181840F951F029675
:102D1000E90199838883828193819B838A83E0E0A0
:102D2000F0E012968D919C911397009719F0FD0198
:102D3000DC01F7CF8D919C9111979D012E5F3F4F44
:102D4000820F931F20913B0930913C0928173907C6
:102D500069F4309729F410923E0910923D0902C09F
:102D600013821282B0933C09A0933B09DF91CF916B
:062D70000895F894FFCF66
:102D7600540B0000F40100003F092000726F7373CA
:102D8600657269616C5F6D7367732F5265717565E6
:102D96007374506172616D007374645F6D736773F1
:102DA6002F54696D65006364373136366337346393
:102DB6003535326333313166626363326665356158
:102DC60037626332383900726F7373657269616C8A
:102DD6005F6D7367732F546F706963496E666F001A
:102DE6003061643531663838666334343839326672
:102DF600386331303638343037373634363030355C
:102E060000726F7373657269616C5F6D7367732FA0
:102E16004C6F670031316162643733316332353963
:102E26003333323631636436313833626431326477
:102E3600363239350039663065393862646136357F
:102E460039383139383664646635336166613761DD
:102E56003430653439007374645F6D7367732F4D56
:102E6600756C7469417272617944696D656E7369D6
:102E76006F6E0034636430633833613836383364D8
:102E86006561653430656364616336306535336228
:102E9600666138007374645F6D7367732F4D756C6C
:102EA600746941727261794C61796F75740030662C
:102EB60065643261313163313365313163353537BC
:102EC60031623465326139393561393161330073C4
:102ED60074645F6D7367732F466C6F617433324D24
:102EE600756C74694172726179003661343065308F
:102EF6006666613661313761353033616333663812
:102F060036313639393162316636004D6573736153
:102F160067652066726F6D206465766963652064F7
:102F2600726F707065643A206D65737361676520B2
:102F36006C6172676572207468616E206275666680
:102F460065722E006D616E6900000000006E0492CD
:102F560004D804DB0400000000B6077F0ADE04E1A3
:102F660004000000008407290AE404E704000000C6
:102F760000AB066D0BEA04ED040000000070067558
:102F860008F004F30400000000F6040A0955055889
:102F960005000000005B059309A805AB05000000CD
:102FA60000BD05FF0EB80500000000140AAE05B20C
:042FB60005B5050058
:00000001FF
